S010000053776974636865722E73726563CB
S113000045C000004BC0000049C0000047C00000CC
S113001045C0000043C0000041C000003FC00000D4
S11300203DC000003BC0000039C0000037C00000E4
S113003035C0000033C0000031C000002FC00000F4
S11300402DC000002BC0000029C0000027C0000004
S113005025C0000023C0000021C000001FC0000014
S11300601DC000001BC0000019C0000017C0000024
S113007015C0000013C0000011C000000FC0000034
S11300800DC000000BC0000009C0000011241FBEF9
S1130090CFEFD0E1DEBFCDBF2AD060C0B1CF80E2C8
S11300A087BB82E88FBD8AE18EBD8CED95E09BBD58
S11300B08ABD8FE19EE497BD86BD0895863A2FEFF1
S11300C0920714F486EA9FEF8B35910514F08AE5C4
S11300D090E09C01220F331F220F331F220F331F86
S11300E0820F931F84529A4F9BBD8ABD08958FEF50
S11300F082BB90EF91BB84BBD2DF8CEE9FEFDEDF3F
S11301002FEF89E698E1215080409040E1F700C04C
S1130110000080E090E0D2DF2FEF89E698E12150E3
S113012080409040E1F700C0000084E190E0C6DF29
S11301302FEF89E698E1215080409040E1F700C01C
S1130140000080E090E0BADF2FEF89E698E12150CB
S113015080409040E1F700C00000CFCFF894FFCF7B
S9030000FC
