:1000000045C0000060C000005EC000005CC0000091
:100010005AC0000058C0000056C0000054C0000084
:1000200052C0000050C000004EC000004CC0000094
:100030004AC0000048C0000046C0000044C00000A4
:1000400042C0000040C000003EC000003CC00000B4
:100050003AC0000038C0000036C0000034C00000C4
:1000600032C0000030C000002EC000002CC00000D4
:100070002AC0000028C0000026C0000024C00000E4
:1000800022C0000020C000001EC0000011241FBEBE
:10009000CFEFD0E1DEBFCDBF11E0A0E0B1E0E4EFF3
:1000A000F1E000E00BBF02C007900D92A230B10753
:1000B000D9F721E0A2E0B1E001C01D92A330B20760
:1000C000E1F742D095C09CCF80E287BB82E88FBD2C
:1000D0008AE18EBD8CED95E09BBD8ABD8FE19EE4EB
:1000E00097BD86BD0895863A2FEF920714F486EAED
:1000F0009FEF8B35910514F08AE590E09C01220F6B
:10010000331F220F331F220F331F820F931F84527E
:100110009A4F9BBD8ABD08958EEF82B980910101EF
:10012000809390008091000189B982E08BB988E1C9
:100130008AB986E0809395008CB18093020108957E
:100140005F9BFECF8CB1089512BA80EF81BB8FEF19
:1001500084BBBADFE1DF80990DC078948CEE9FEF0D
:10016000C2DF2FEF89E698E1215080409040E1F70F
:1001700000C0000081990DC0789480E090E0B3DF6A
:100180002FEF89E698E1215080409040E1F700C0D0
:10019000000082990DC0789484E190E0A4DF2FEFF5
:1001A00089E698E1215080409040E1F700C00000CE
:1001B000C7DF813669F48CEE9FEF95DF2FEF89E67C
:1001C00098E1215080409040E1F700C00000C3CF8B
:1001D000823609F0C0CF80E090E085DF2FEF89E61E
:1001E00098E1215080409040E1F700C00000B3CF7B
:0401F000F894FFCFB1
:0201F4001900F0
:00000001FF
