S010000053776974636865722E73726563CB
S113000045C0000060C000005EC000005CC000008D
S11300105AC0000058C0000056C0000054C0000080
S113002052C0000050C000004EC000004CC0000090
S11300304AC0000048C0000046C0000044C00000A0
S113004042C0000040C000003EC000003CC00000B0
S11300503AC0000038C0000036C0000034C00000C0
S113006032C0000030C000002EC000002CC00000D0
S11300702AC0000028C0000026C0000024C00000E0
S113008022C0000020C000001EC0000011241FBEBA
S1130090CFEFD0E1DEBFCDBF11E0A0E0B1E0E8E4F6
S11300A0F1E000E00BBF02C007900D92A631B1074A
S11300B0D9F721E0A6E1B1E001C01D92A731B20752
S11300C0E1F730D03FC09CCF8EEF82B9809101011F
S11300D0809390008091000189B982E08BB988E116
S11300E08AB986E0809395008CB1809316010895B7
S11300F05D9BFECF8CB90895CF93DF93EC0188818B
S1130100882329F02196F4DF89918111FCCFDF91B6
S1130110CF9108955F9BFECF8CB108955D9BFECF78
S11301208CB908958FEF82BB90EF91BB84BBCCDF79
S1130130F1DF813621F082E091E0DEDFF9CFEADF02
S10B0140EDDFFDCFF894FFCFC1
S113014819007777772E73656E696F72636F6D2EFA
S1090158636F2E6B7200C0
S9030000FC
