S010000053776974636865722E73726563CB
S113000045C0000060C000005EC000005CC000008D
S11300105AC0000058C0000056C0000054C0000080
S113002052C0000050C000004EC000004CC0000090
S11300304AC0000048C0000046C0000044C00000A0
S113004042C0000040C000003EC000003CC00000B0
S11300503AC0000038C0000036C0000034C00000C0
S113006032C0000030C000002EC000002CC00000D0
S11300702AC0000028C0000026C0000024C00000E0
S113008022C0000020C000001EC0000011241FBEBA
S1130090CFEFD0E1DEBFCDBF11E0A0E0B1E0EAEAEE
S11300A0F2E000E00BBF02C007900D92A430B1074C
S11300B0D9F721E0A4E0B1E001C01D92A530B20758
S11300C0E1F761D0F0C09CCF80E287BB82E88FBDAE
S11300D08AE18EBD8CED95E09BBD8ABD8FE19EE4E7
S11300E097BD86BD0895863A2FEF920714F486EAE9
S11300F09FEF8B35910514F08AE590E09C01220F67
S1130100331F220F331F220F331F820F931F84527A
S11301109A4F9BBD8ABD08958EEF82B980910301E9
S1130120809390008091020189B982E08BB988E1C3
S11301308AB986E0809395008CB180930401089578
S1130140999917C080910001909101018130910526
S113015031F410920101109200018EE60895892B6A
S113016051F481E090E0909301018093000186E6D0
S1130170089581E3089581E308955F9902C0E0CF73
S113018008958CB1089580EF84BB9EDFC5DFF5DF51
S1130190C82FD0E0C137D10569F488ED9FEFA3DF04
S11301A02FEF82E597E0215080409040E1F700C0B6
S11301B0000020C0C737D10569F482EE9FEF93DFBA
S11301C02FEF82E597E0215080409040E1F700C096
S11301D0000020C0C536D10569F48CEE9FEF83DFA3
S11301E02FEF82E597E0215080409040E1F700C076
S11301F0000020C0C237D10569F486EF9FEF73DF9A
S11302002FEF82E597E0215080409040E1F700C055
S1130210000020C0C437D10569F480E090E063DFBA
S11302202FEF82E597E0215080409040E1F700C035
S1130230000024C0C937D10569F48AE090E053DF97
S11302402FEF82E597E0215080409040E1F700C015
S113025000009DCFCE36D10589F485B38F708061BF
S113026085BB82EE9FEF3FDF2FEF82E597E02150C1
S113027080409040E1F700C0000089CFC636D10528
S113028009F085CF85B38F70806285BB8AE090E0EA
S11302902ADF2FEF82E597E0215080409040E1F77C
S10D02A000C0000074CFF894FFCFF3
S10702AA0100190032
S9030000FC
