S010000053776974636865722E73726563CB
S113000045C0000060C000005EC000005CC000008D
S11300105AC0000058C0000056C0000054C0000080
S113002052C0000050C000004EC000004CC0000090
S11300304AC0000048C0000046C0000044C00000A0
S113004042C0000040C000003EC000003CC00000B0
S11300503AC0000038C0000036C0000034C00000C0
S113006032C0000030C000002EC000002CC00000D0
S11300702AC0000028C0000026C0000024C00000E0
S113008022C0000020C000001EC0000011241FBEBA
S1130090CFEFD0E1DEBFCDBF11E0A0E0B1E0EAE7F1
S11300A0F2E000E00BBF02C007900D92A230B1074E
S11300B0D9F721E0A2E0B1E001C01D92A330B2075C
S11300C0E1F742D0D8C09CCF80E287BB82E88FBDE5
S11300D08AE18EBD8CED95E09BBD8ABD8FE19EE4E7
S11300E097BD86BD0895863A2FEF920714F486EAE9
S11300F09FEF8B35910514F08AE590E09C01220F67
S1130100331F220F331F220F331F820F931F84527A
S11301109A4F9BBD8ABD08958EEF82B980910101EB
S1130120809390008091000189B982E08BB988E1C5
S11301308AB986E0809395008CB18093020108957A
S11301405F9BFECF8CB1089512BA80EF81BBBCDFF8
S1130150E3DFF6DFC82FD0E0CE0168D09C012C5934
S11301603F4F293C310508F4BEDFC137D10569F49E
S113017088ED9FEFB8DF2FEF89E698E121508040AA
S11301809040E1F700C0000020C0C737D10569F4F2
S113019082EE9FEFA8DF2FEF89E698E1215080409F
S11301A09040E1F700C0000020C0C536D10569F4D5
S11301B08CEE9FEF98DF2FEF89E698E12150804085
S11301C09040E1F700C0000020C0C237D10569F4B7
S11301D086EF9FEF88DF2FEF89E698E1215080407A
S11301E09040E1F700C00000B4CFC437D10569F4F2
S11301F080E090E078DF2FEF89E698E1215080409D
S11302009040E1F700C00000A4CFC937D10509F040
S1130210A0CF8AE090E067DF2FEF89E698E12150D4
S113022080409040E1F700C0000093CFFC01882794
S11302309927E89421912032E9F3293010F02E30E7
S1130240C8F32B3239F02D3231F4689403C00BD04B
S1130250820F911D219120532A30C8F31EF49095EA
S113026081959F4F08957AE0979F902D879F802DC9
S10D0270910D11240895F894FFCFB6
S105027A190065
S9030000FC
